{
  "transactions": [
    {
      "hash": "0xcdc6d6ded6f2a5cac40b569fef1c949c6ed0618e5f94b5818b6859aac8baf247",
      "transactionType": "CALL",
      "contractName": null,
      "contractAddress": "0xa2bfa4cd0171f124df6ed94a41d79a81b5ffb42d",
      "function": "approve(address,uint256)",
      "arguments": [
        "0xf8d44CC59B87b7649F7BC37a8F1C86B2f3a92876",
        "1000000000000000000"
      ],
      "transaction": {
        "from": "0x10704c7c238caacb6e2bc41cf1dbacaad5e5aef7",
        "to": "0xa2bfa4cd0171f124df6ed94a41d79a81b5ffb42d",
        "gas": "0xa111",
        "value": "0x0",
        "input": "0x095ea7b3000000000000000000000000f8d44cc59b87b7649f7bc37a8f1c86b2f3a928760000000000000000000000000000000000000000000000000de0b6b3a7640000",
        "nonce": "0x49",
        "chainId": "0xaa36a7"
      },
      "additionalContracts": [],
      "isFixedGasLimit": false
    },
    {
      "hash": "0x0fe9b15bdbdde61bb9d5289658dd3539e6a10a460310e45bec91d79fed7748ca",
      "transactionType": "CALL",
      "contractName": null,
      "contractAddress": "0x60be8d6884ff778db96968635f6089029ecf0799",
      "function": "approve(address,uint256)",
      "arguments": [
        "0xf8d44CC59B87b7649F7BC37a8F1C86B2f3a92876",
        "1000000000"
      ],
      "transaction": {
        "from": "0x10704c7c238caacb6e2bc41cf1dbacaad5e5aef7",
        "to": "0x60be8d6884ff778db96968635f6089029ecf0799",
        "gas": "0x9a58",
        "value": "0x0",
        "input": "0x095ea7b3000000000000000000000000f8d44cc59b87b7649f7bc37a8f1c86b2f3a92876000000000000000000000000000000000000000000000000000000003b9aca00",
        "nonce": "0x4a",
        "chainId": "0xaa36a7"
      },
      "additionalContracts": [],
      "isFixedGasLimit": false
    },
    {
      "hash": "0x98e123ef8212f64dccbd86f0931986021fbc19791c6cefc6139d45e073ae31c6",
      "transactionType": "CALL",
      "contractName": null,
      "contractAddress": "0xf8d44cc59b87b7649f7bc37a8f1c86b2f3a92876",
      "function": "mint(((address,address,address,address,uint24,bytes32),int24,int24,bytes32,uint256,uint256,uint256,uint256,address,uint256))",
      "arguments": [
        "((0x60Be8D6884fF778db96968635F6089029Ecf0799, 0xA2bFA4Cd0171f124Df6ed94a41D79A81B5Ffb42d, 0x212De9edC27d871Cf974cC27B02CC64E17efF441, 0x97e09cD0E079CeeECBb799834959e3dC8e4ec31A, 3000, 0x00000000000000000000000000000000000000000000000000000000000a0000), 195770, 195980, 0x0000000000000000000000000000000000000000000000000000000000000000, 1000000000000000000, 1000000000, 0, 0, 0x10704c7c238CAaCB6e2bC41CF1dbACAAD5E5AEf7, 1720923648)"
      ],
      "transaction": {
        "from": "0x10704c7c238caacb6e2bc41cf1dbacaad5e5aef7",
        "to": "0xf8d44cc59b87b7649f7bc37a8f1c86b2f3a92876",
        "gas": "0xaffc8",
        "value": "0x0",
        "input": "0xc12a1ef700000000000000000000000060be8d6884ff778db96968635f6089029ecf0799000000000000000000000000a2bfa4cd0171f124df6ed94a41d79a81b5ffb42d000000000000000000000000212de9edc27d871cf974cc27b02cc64e17eff44100000000000000000000000097e09cd0e079ceeecbb799834959e3dc8e4ec31a0000000000000000000000000000000000000000000000000000000000000bb800000000000000000000000000000000000000000000000000000000000a0000000000000000000000000000000000000000000000000000000000000002fcba000000000000000000000000000000000000000000000000000000000002fd8c00000000000000000000000000000000000000000000000000000000000000000000000000000000000000000000000000000000000000000de0b6b3a7640000000000000000000000000000000000000000000000000000000000003b9aca000000000000000000000000000000000000000000000000000000000000000000000000000000000000000000000000000000000000000000000000000000000000000000000000000000000010704c7c238caacb6e2bc41cf1dbacaad5e5aef70000000000000000000000000000000000000000000000000000000066933600",
        "nonce": "0x4b",
        "chainId": "0xaa36a7"
      },
      "additionalContracts": [],
      "isFixedGasLimit": false
    }
  ],
  "receipts": [
    {
      "status": "0x1",
      "cumulativeGasUsed": "0xe55fa2",
      "logs": [
        {
          "address": "0xa2bfa4cd0171f124df6ed94a41d79a81b5ffb42d",
          "topics": [
            "0x8c5be1e5ebec7d5bd14f71427d1e84f3dd0314c0f7b2291e5b200ac8c7c3b925",
            "0x00000000000000000000000010704c7c238caacb6e2bc41cf1dbacaad5e5aef7",
            "0x000000000000000000000000f8d44cc59b87b7649f7bc37a8f1c86b2f3a92876"
          ],
          "data": "0x0000000000000000000000000000000000000000000000000de0b6b3a7640000",
          "blockHash": "0x59918307cf4a9458e97bd0aecdbcc9b3fb65eb95b9fe836b605f6b3801a09479",
          "blockNumber": "0x60218b",
          "transactionHash": "0xcdc6d6ded6f2a5cac40b569fef1c949c6ed0618e5f94b5818b6859aac8baf247",
          "transactionIndex": "0x35",
          "logIndex": "0xdf",
          "removed": false
        }
      ],
      "logsBloom": "0x00000000000000000200000000000000000000000000000000000000000000030000000000000000000000000000000000000000000000000000000000200000000000000800000000000000000000000000000000000000000000000000000000000000000000000000000000000000000001000000000000000000000000000000000000000000000000000000000000000000000000000000000000000000020000000000000004000000000000002000000000000000000000000000000000000000000000000000000000000000000000000000000002000000000000000210000000000000000000000000000000000000000000000000000000000000",
      "type": "0x2",
      "transactionHash": "0xcdc6d6ded6f2a5cac40b569fef1c949c6ed0618e5f94b5818b6859aac8baf247",
      "transactionIndex": "0x35",
      "blockHash": "0x59918307cf4a9458e97bd0aecdbcc9b3fb65eb95b9fe836b605f6b3801a09479",
      "blockNumber": "0x60218b",
      "gasUsed": "0x749d",
      "effectiveGasPrice": "0x1afb49d5f",
      "from": "0x10704c7c238caacb6e2bc41cf1dbacaad5e5aef7",
      "to": "0xa2bfa4cd0171f124df6ed94a41d79a81b5ffb42d",
      "contractAddress": null
    },
    {
      "status": "0x1",
      "cumulativeGasUsed": "0xe5c92b",
      "logs": [
        {
          "address": "0x60be8d6884ff778db96968635f6089029ecf0799",
          "topics": [
            "0x8c5be1e5ebec7d5bd14f71427d1e84f3dd0314c0f7b2291e5b200ac8c7c3b925",
            "0x00000000000000000000000010704c7c238caacb6e2bc41cf1dbacaad5e5aef7",
            "0x000000000000000000000000f8d44cc59b87b7649f7bc37a8f1c86b2f3a92876"
          ],
          "data": "0x000000000000000000000000000000000000000000000000000000003b9aca00",
          "blockHash": "0x59918307cf4a9458e97bd0aecdbcc9b3fb65eb95b9fe836b605f6b3801a09479",
          "blockNumber": "0x60218b",
          "transactionHash": "0x0fe9b15bdbdde61bb9d5289658dd3539e6a10a460310e45bec91d79fed7748ca",
          "transactionIndex": "0x36",
          "logIndex": "0xe0",
          "removed": false
        }
      ],
      "logsBloom": "0x00000000000000000200000000000000000080000000000000000000000000030000000000000000000000000000000000000000000000000000000000200000000000000800000000000000000000000000000000000000000000000000000000000000000000000000000000000000000000000000000000000000000000000000000000000000000000000000010000000000000000000000000000000000020000000000000004000000000000002000000000000000000000000000000000000000000000000000000000000000000000000000000000000000000000000010000000000400000000000000000000000000000000000000000000000000",
      "type": "0x2",
      "transactionHash": "0x0fe9b15bdbdde61bb9d5289658dd3539e6a10a460310e45bec91d79fed7748ca",
      "transactionIndex": "0x36",
      "blockHash": "0x59918307cf4a9458e97bd0aecdbcc9b3fb65eb95b9fe836b605f6b3801a09479",
      "blockNumber": "0x60218b",
      "gasUsed": "0x6989",
      "effectiveGasPrice": "0x1afb49d5f",
      "from": "0x10704c7c238caacb6e2bc41cf1dbacaad5e5aef7",
      "to": "0x60be8d6884ff778db96968635f6089029ecf0799",
      "contractAddress": null
    },
    {
      "status": "0x1",
      "cumulativeGasUsed": "0xed4e7e",
      "logs": [
        {
          "address": "0x97e09cd0e079ceeecbb799834959e3dc8e4ec31a",
          "topics": [
            "0x431541727fac2b75e420d6f68d74dec38a010e3bcb4bc3416a866ffb2123be33",
            "0x70dc36e668e60be5a462c2bbac216f4b6afc4b28cdaf1ce014c73a81e14b9e5a",
            "0x000000000000000000000000f8d44cc59b87b7649f7bc37a8f1c86b2f3a92876"
          ],
          "data": "0x000000000000000000000000000000000000000000000000000000000002fcba000000000000000000000000000000000000000000000000000000000002fd8c000000000000000000000000000000000000000000000000000000000000000000000000000000000000000000000000000000000000000000000000009ec264",
          "blockHash": "0x59918307cf4a9458e97bd0aecdbcc9b3fb65eb95b9fe836b605f6b3801a09479",
          "blockNumber": "0x60218b",
          "transactionHash": "0x98e123ef8212f64dccbd86f0931986021fbc19791c6cefc6139d45e073ae31c6",
          "transactionIndex": "0x37",
          "logIndex": "0xe1",
          "removed": false
        },
        {
          "address": "0xf8d44cc59b87b7649f7bc37a8f1c86b2f3a92876",
          "topics": [
            "0xddf252ad1be2c89b69c2b068fc378daa952ba7f163c4a11628f55a4df523b3ef",
            "0x0000000000000000000000000000000000000000000000000000000000000000",
            "0x00000000000000000000000010704c7c238caacb6e2bc41cf1dbacaad5e5aef7",
            "0x0000000000000000000000000000000000000000000000000000000000000005"
          ],
          "data": "0x",
          "blockHash": "0x59918307cf4a9458e97bd0aecdbcc9b3fb65eb95b9fe836b605f6b3801a09479",
          "blockNumber": "0x60218b",
          "transactionHash": "0x98e123ef8212f64dccbd86f0931986021fbc19791c6cefc6139d45e073ae31c6",
          "transactionIndex": "0x37",
          "logIndex": "0xe2",
          "removed": false
        },
        {
          "address": "0x60be8d6884ff778db96968635f6089029ecf0799",
          "topics": [
            "0xddf252ad1be2c89b69c2b068fc378daa952ba7f163c4a11628f55a4df523b3ef",
            "0x00000000000000000000000010704c7c238caacb6e2bc41cf1dbacaad5e5aef7",
            "0x0000000000000000000000009ddc29733279c31cab29616ebf3eb37e63cc9157"
          ],
          "data": "0x0000000000000000000000000000000000000000000000000000000000000003",
          "blockHash": "0x59918307cf4a9458e97bd0aecdbcc9b3fb65eb95b9fe836b605f6b3801a09479",
          "blockNumber": "0x60218b",
          "transactionHash": "0x98e123ef8212f64dccbd86f0931986021fbc19791c6cefc6139d45e073ae31c6",
          "transactionIndex": "0x37",
          "logIndex": "0xe3",
          "removed": false
        },
        {
          "address": "0xa2bfa4cd0171f124df6ed94a41d79a81b5ffb42d",
          "topics": [
            "0xddf252ad1be2c89b69c2b068fc378daa952ba7f163c4a11628f55a4df523b3ef",
            "0x00000000000000000000000010704c7c238caacb6e2bc41cf1dbacaad5e5aef7",
            "0x0000000000000000000000009ddc29733279c31cab29616ebf3eb37e63cc9157"
          ],
          "data": "0x000000000000000000000000000000000000000000000000000000003b9ac9d8",
          "blockHash": "0x59918307cf4a9458e97bd0aecdbcc9b3fb65eb95b9fe836b605f6b3801a09479",
          "blockNumber": "0x60218b",
          "transactionHash": "0x98e123ef8212f64dccbd86f0931986021fbc19791c6cefc6139d45e073ae31c6",
          "transactionIndex": "0x37",
          "logIndex": "0xe4",
          "removed": false
        },
        {
          "address": "0xf8d44cc59b87b7649f7bc37a8f1c86b2f3a92876",
          "topics": [
            "0x3067048beee31b25b2f1681f88dac838c8bba36af25bfb2b7cf7473a5847e35f",
            "0x0000000000000000000000000000000000000000000000000000000000000005"
          ],
          "data": "0x00000000000000000000000000000000000000000000000000000000009ec2640000000000000000000000000000000000000000000000000000000000000003000000000000000000000000000000000000000000000000000000003b9ac9d8",
          "blockHash": "0x59918307cf4a9458e97bd0aecdbcc9b3fb65eb95b9fe836b605f6b3801a09479",
          "blockNumber": "0x60218b",
          "transactionHash": "0x98e123ef8212f64dccbd86f0931986021fbc19791c6cefc6139d45e073ae31c6",
          "transactionIndex": "0x37",
          "logIndex": "0xe5",
          "removed": false
        }
      ],
      "logsBloom": "0x00000000000200000200000000000000000080000010000000000000000000030000000000000040000000000001000000000000000000000400000000000000000010000800000000000008000000000000000000000000002200000000000000000000020000000000000000000800000001000800000000000010000000000008000000000000000000000000011000000880000000000000000000010000000000000000000004000000000000002000004000000000000000000000000000000002200000200002000000000000000000000000000002000000000020000200000000000400010000000000000000000000000000000000000000000800",
      "type": "0x2",
      "transactionHash": "0x98e123ef8212f64dccbd86f0931986021fbc19791c6cefc6139d45e073ae31c6",
      "transactionIndex": "0x37",
      "blockHash": "0x59918307cf4a9458e97bd0aecdbcc9b3fb65eb95b9fe836b605f6b3801a09479",
      "blockNumber": "0x60218b",
      "gasUsed": "0x78553",
      "effectiveGasPrice": "0x1afb49d5f",
      "from": "0x10704c7c238caacb6e2bc41cf1dbacaad5e5aef7",
      "to": "0xf8d44cc59b87b7649f7bc37a8f1c86b2f3a92876",
      "contractAddress": null
    }
  ],
  "libraries": [],
  "pending": [],
  "returns": {},
  "timestamp": 1720837281,
  "chain": 11155111,
  "commit": "6f31e88"
}