{
  "transactions": [
    {
      "hash": "0xe7fc0edb0aa8be77f8e916f1e0bbc625e32f35397a73803834eab9be3f4cf345",
      "transactionType": "CALL",
      "contractName": null,
      "contractAddress": "0xa2bfa4cd0171f124df6ed94a41d79a81b5ffb42d",
      "function": "approve(address,uint256)",
      "arguments": [
        "0xf8d44CC59B87b7649F7BC37a8F1C86B2f3a92876",
        "1000000000000000000"
      ],
      "transaction": {
        "from": "0x10704c7c238caacb6e2bc41cf1dbacaad5e5aef7",
        "to": "0xa2bfa4cd0171f124df6ed94a41d79a81b5ffb42d",
        "gas": "0x10c3c",
        "value": "0x0",
        "input": "0x095ea7b3000000000000000000000000f8d44cc59b87b7649f7bc37a8f1c86b2f3a928760000000000000000000000000000000000000000000000000de0b6b3a7640000",
        "nonce": "0x46",
        "chainId": "0xaa36a7"
      },
      "additionalContracts": [],
      "isFixedGasLimit": false
    },
    {
      "hash": "0x1fe65e143d53bdea3952205e77f5f0cb30c796e41b59091e6c3625519ad83f78",
      "transactionType": "CALL",
      "contractName": null,
      "contractAddress": "0x60be8d6884ff778db96968635f6089029ecf0799",
      "function": "approve(address,uint256)",
      "arguments": [
        "0xf8d44CC59B87b7649F7BC37a8F1C86B2f3a92876",
        "1000000000"
      ],
      "transaction": {
        "from": "0x10704c7c238caacb6e2bc41cf1dbacaad5e5aef7",
        "to": "0x60be8d6884ff778db96968635f6089029ecf0799",
        "gas": "0xaa57",
        "value": "0x0",
        "input": "0x095ea7b3000000000000000000000000f8d44cc59b87b7649f7bc37a8f1c86b2f3a92876000000000000000000000000000000000000000000000000000000003b9aca00",
        "nonce": "0x47",
        "chainId": "0xaa36a7"
      },
      "additionalContracts": [],
      "isFixedGasLimit": false
    },
    {
      "hash": "0x5f02266fcdc0aba85415d0c7db5c9d1b39eb84baea4de9c3b62e7145cc7db4ef",
      "transactionType": "CALL",
      "contractName": null,
      "contractAddress": "0xf8d44cc59b87b7649f7bc37a8f1c86b2f3a92876",
      "function": "mint(((address,address,address,address,uint24,bytes32),int24,int24,bytes32,uint256,uint256,uint256,uint256,address,uint256))",
      "arguments": [
        "((0x60Be8D6884fF778db96968635F6089029Ecf0799, 0xA2bFA4Cd0171f124Df6ed94a41D79A81B5Ffb42d, 0x212De9edC27d871Cf974cC27B02CC64E17efF441, 0x97e09cD0E079CeeECBb799834959e3dC8e4ec31A, 3000, 0x00000000000000000000000000000000000000000000000000000000000a0000), -1000, 1000, 0x0000000000000000000000000000000000000000000000000000000000000000, 1000000000000000000, 1000000000, 0, 0, 0x10704c7c238CAaCB6e2bC41CF1dbACAAD5E5AEf7, 1720919796)"
      ],
      "transaction": {
        "from": "0x10704c7c238caacb6e2bc41cf1dbacaad5e5aef7",
        "to": "0xf8d44cc59b87b7649f7bc37a8f1c86b2f3a92876",
        "gas": "0x6d84f",
        "value": "0x0",
        "input": "0xc12a1ef700000000000000000000000060be8d6884ff778db96968635f6089029ecf0799000000000000000000000000a2bfa4cd0171f124df6ed94a41d79a81b5ffb42d000000000000000000000000212de9edc27d871cf974cc27b02cc64e17eff44100000000000000000000000097e09cd0e079ceeecbb799834959e3dc8e4ec31a0000000000000000000000000000000000000000000000000000000000000bb800000000000000000000000000000000000000000000000000000000000a0000fffffffffffffffffffffffffffffffffffffffffffffffffffffffffffffc1800000000000000000000000000000000000000000000000000000000000003e800000000000000000000000000000000000000000000000000000000000000000000000000000000000000000000000000000000000000000de0b6b3a7640000000000000000000000000000000000000000000000000000000000003b9aca000000000000000000000000000000000000000000000000000000000000000000000000000000000000000000000000000000000000000000000000000000000000000000000000000000000010704c7c238caacb6e2bc41cf1dbacaad5e5aef700000000000000000000000000000000000000000000000000000000669326f4",
        "nonce": "0x48",
        "chainId": "0xaa36a7"
      },
      "additionalContracts": [],
      "isFixedGasLimit": false
    }
  ],
  "receipts": [
    {
      "status": "0x1",
      "cumulativeGasUsed": "0x9cf502",
      "logs": [
        {
          "address": "0xa2bfa4cd0171f124df6ed94a41d79a81b5ffb42d",
          "topics": [
            "0x8c5be1e5ebec7d5bd14f71427d1e84f3dd0314c0f7b2291e5b200ac8c7c3b925",
            "0x00000000000000000000000010704c7c238caacb6e2bc41cf1dbacaad5e5aef7",
            "0x000000000000000000000000f8d44cc59b87b7649f7bc37a8f1c86b2f3a92876"
          ],
          "data": "0x0000000000000000000000000000000000000000000000000de0b6b3a7640000",
          "blockHash": "0xd824b44a5b5d0c8e4a4384224824315e5d4757e2b0e3f2ad56b08d1939d1b851",
          "blockNumber": "0x602069",
          "transactionHash": "0xe7fc0edb0aa8be77f8e916f1e0bbc625e32f35397a73803834eab9be3f4cf345",
          "transactionIndex": "0x4d",
          "logIndex": "0x5f",
          "removed": false
        }
      ],
      "logsBloom": "0x00000000000000000200000000000000000000000000000000000000000000030000000000000000000000000000000000000000000000000000000000200000000000000800000000000000000000000000000000000000000000000000000000000000000000000000000000000000000001000000000000000000000000000000000000000000000000000000000000000000000000000000000000000000020000000000000004000000000000002000000000000000000000000000000000000000000000000000000000000000000000000000000002000000000000000210000000000000000000000000000000000000000000000000000000000000",
      "type": "0x2",
      "transactionHash": "0xe7fc0edb0aa8be77f8e916f1e0bbc625e32f35397a73803834eab9be3f4cf345",
      "transactionIndex": "0x4d",
      "blockHash": "0xd824b44a5b5d0c8e4a4384224824315e5d4757e2b0e3f2ad56b08d1939d1b851",
      "blockNumber": "0x602069",
      "gasUsed": "0xb769",
      "effectiveGasPrice": "0xe6e9596e",
      "from": "0x10704c7c238caacb6e2bc41cf1dbacaad5e5aef7",
      "to": "0xa2bfa4cd0171f124df6ed94a41d79a81b5ffb42d",
      "contractAddress": null
    },
    {
      "status": "0x1",
      "cumulativeGasUsed": "0x9d697b",
      "logs": [
        {
          "address": "0x60be8d6884ff778db96968635f6089029ecf0799",
          "topics": [
            "0x8c5be1e5ebec7d5bd14f71427d1e84f3dd0314c0f7b2291e5b200ac8c7c3b925",
            "0x00000000000000000000000010704c7c238caacb6e2bc41cf1dbacaad5e5aef7",
            "0x000000000000000000000000f8d44cc59b87b7649f7bc37a8f1c86b2f3a92876"
          ],
          "data": "0x000000000000000000000000000000000000000000000000000000003b9aca00",
          "blockHash": "0xd824b44a5b5d0c8e4a4384224824315e5d4757e2b0e3f2ad56b08d1939d1b851",
          "blockNumber": "0x602069",
          "transactionHash": "0x1fe65e143d53bdea3952205e77f5f0cb30c796e41b59091e6c3625519ad83f78",
          "transactionIndex": "0x4e",
          "logIndex": "0x60",
          "removed": false
        }
      ],
      "logsBloom": "0x00000000000000000200000000000000000080000000000000000000000000030000000000000000000000000000000000000000000000000000000000200000000000000800000000000000000000000000000000000000000000000000000000000000000000000000000000000000000000000000000000000000000000000000000000000000000000000000010000000000000000000000000000000000020000000000000004000000000000002000000000000000000000000000000000000000000000000000000000000000000000000000000000000000000000000010000000000400000000000000000000000000000000000000000000000000",
      "type": "0x2",
      "transactionHash": "0x1fe65e143d53bdea3952205e77f5f0cb30c796e41b59091e6c3625519ad83f78",
      "transactionIndex": "0x4e",
      "blockHash": "0xd824b44a5b5d0c8e4a4384224824315e5d4757e2b0e3f2ad56b08d1939d1b851",
      "blockNumber": "0x602069",
      "gasUsed": "0x7479",
      "effectiveGasPrice": "0xe6e9596e",
      "from": "0x10704c7c238caacb6e2bc41cf1dbacaad5e5aef7",
      "to": "0x60be8d6884ff778db96968635f6089029ecf0799",
      "contractAddress": null
    },
    {
      "status": "0x1",
      "cumulativeGasUsed": "0xa25e1f",
      "logs": [
        {
          "address": "0x97e09cd0e079ceeecbb799834959e3dc8e4ec31a",
          "topics": [
            "0x431541727fac2b75e420d6f68d74dec38a010e3bcb4bc3416a866ffb2123be33",
            "0x70dc36e668e60be5a462c2bbac216f4b6afc4b28cdaf1ce014c73a81e14b9e5a",
            "0x000000000000000000000000f8d44cc59b87b7649f7bc37a8f1c86b2f3a92876"
          ],
          "data": "0xfffffffffffffffffffffffffffffffffffffffffffffffffffffffffffffc1800000000000000000000000000000000000000000000000000000000000003e800000000000000000000000000000000000000000000000000000000000000000000000000000000000000000000000000000000000000000000000253d3f69c",
          "blockHash": "0xd824b44a5b5d0c8e4a4384224824315e5d4757e2b0e3f2ad56b08d1939d1b851",
          "blockNumber": "0x602069",
          "transactionHash": "0x5f02266fcdc0aba85415d0c7db5c9d1b39eb84baea4de9c3b62e7145cc7db4ef",
          "transactionIndex": "0x4f",
          "logIndex": "0x61",
          "removed": false
        },
        {
          "address": "0xf8d44cc59b87b7649f7bc37a8f1c86b2f3a92876",
          "topics": [
            "0xddf252ad1be2c89b69c2b068fc378daa952ba7f163c4a11628f55a4df523b3ef",
            "0x0000000000000000000000000000000000000000000000000000000000000000",
            "0x00000000000000000000000010704c7c238caacb6e2bc41cf1dbacaad5e5aef7",
            "0x0000000000000000000000000000000000000000000000000000000000000004"
          ],
          "data": "0x",
          "blockHash": "0xd824b44a5b5d0c8e4a4384224824315e5d4757e2b0e3f2ad56b08d1939d1b851",
          "blockNumber": "0x602069",
          "transactionHash": "0x5f02266fcdc0aba85415d0c7db5c9d1b39eb84baea4de9c3b62e7145cc7db4ef",
          "transactionIndex": "0x4f",
          "logIndex": "0x62",
          "removed": false
        },
        {
          "address": "0xa2bfa4cd0171f124df6ed94a41d79a81b5ffb42d",
          "topics": [
            "0xddf252ad1be2c89b69c2b068fc378daa952ba7f163c4a11628f55a4df523b3ef",
            "0x00000000000000000000000010704c7c238caacb6e2bc41cf1dbacaad5e5aef7",
            "0x0000000000000000000000009ddc29733279c31cab29616ebf3eb37e63cc9157"
          ],
          "data": "0x000000000000000000000000000000000000000000000000000000003b9aca00",
          "blockHash": "0xd824b44a5b5d0c8e4a4384224824315e5d4757e2b0e3f2ad56b08d1939d1b851",
          "blockNumber": "0x602069",
          "transactionHash": "0x5f02266fcdc0aba85415d0c7db5c9d1b39eb84baea4de9c3b62e7145cc7db4ef",
          "transactionIndex": "0x4f",
          "logIndex": "0x63",
          "removed": false
        },
        {
          "address": "0xf8d44cc59b87b7649f7bc37a8f1c86b2f3a92876",
          "topics": [
            "0x3067048beee31b25b2f1681f88dac838c8bba36af25bfb2b7cf7473a5847e35f",
            "0x0000000000000000000000000000000000000000000000000000000000000004"
          ],
          "data": "0x0000000000000000000000000000000000000000000000000000000253d3f69c0000000000000000000000000000000000000000000000000000000000000000000000000000000000000000000000000000000000000000000000003b9aca00",
          "blockHash": "0xd824b44a5b5d0c8e4a4384224824315e5d4757e2b0e3f2ad56b08d1939d1b851",
          "blockNumber": "0x602069",
          "transactionHash": "0x5f02266fcdc0aba85415d0c7db5c9d1b39eb84baea4de9c3b62e7145cc7db4ef",
          "transactionIndex": "0x4f",
          "logIndex": "0x64",
          "removed": false
        }
      ],
      "logsBloom": "0x00000000000200000200000000000000000080000010000000000000000000030000000000000040000000000001000000000000000000000400000000000000000000000800000000000008000000000000000000000000002200000000000008000000020000000000000000000800000001000800000000000010000000000008000000000000000000000000000000000080000000000000000000010000000000000000000004000000000000002000004000000000002000000000000000000002200000200002000000000000000000008000000002000000000020000200000000000000010000000000000000000000000000000000000000000800",
      "type": "0x2",
      "transactionHash": "0x5f02266fcdc0aba85415d0c7db5c9d1b39eb84baea4de9c3b62e7145cc7db4ef",
      "transactionIndex": "0x4f",
      "blockHash": "0xd824b44a5b5d0c8e4a4384224824315e5d4757e2b0e3f2ad56b08d1939d1b851",
      "blockNumber": "0x602069",
      "gasUsed": "0x4f4a4",
      "effectiveGasPrice": "0xe6e9596e",
      "from": "0x10704c7c238caacb6e2bc41cf1dbacaad5e5aef7",
      "to": "0xf8d44cc59b87b7649f7bc37a8f1c86b2f3a92876",
      "contractAddress": null
    }
  ],
  "libraries": [],
  "pending": [],
  "returns": {},
  "timestamp": 1720833449,
  "chain": 11155111,
  "commit": "6f31e88"
}