{
  "transactions": [
    {
      "hash": "0xeed9cced8203cf683661ae1649907f6983937c0cf79b9c08f71c1659e142b18b",
      "transactionType": "CALL",
      "contractName": null,
      "contractAddress": "0xa2bfa4cd0171f124df6ed94a41d79a81b5ffb42d",
      "function": "approve(address,uint256)",
      "arguments": [
        "0xf8d44CC59B87b7649F7BC37a8F1C86B2f3a92876",
        "1000000000000000000"
      ],
      "transaction": {
        "from": "0x10704c7c238caacb6e2bc41cf1dbacaad5e5aef7",
        "to": "0xa2bfa4cd0171f124df6ed94a41d79a81b5ffb42d",
        "gas": "0x10c3c",
        "value": "0x0",
        "input": "0x095ea7b3000000000000000000000000f8d44cc59b87b7649f7bc37a8f1c86b2f3a928760000000000000000000000000000000000000000000000000de0b6b3a7640000",
        "nonce": "0x3c",
        "chainId": "0xaa36a7"
      },
      "additionalContracts": [],
      "isFixedGasLimit": false
    },
    {
      "hash": "0xb00d1645b7524358b88564bf97b41444e5b547c8445e4555d72d90ca4517b6c6",
      "transactionType": "CALL",
      "contractName": null,
      "contractAddress": "0x60Be8D6884fF778db96968635F6089029Ecf0799",
      "function": "approve(address,uint256)",
      "arguments": [
        "0xf8d44CC59B87b7649F7BC37a8F1C86B2f3a92876",
        "1000000000000000000"
      ],
      "transaction": {
        "from": "0x10704c7c238caacb6e2bc41cf1dbacaad5e5aef7",
        "to": "0x60Be8D6884fF778db96968635F6089029Ecf0799",
        "gas": "0x10c3c",
        "value": "0x0",
        "input": "0x095ea7b3000000000000000000000000f8d44cc59b87b7649f7bc37a8f1c86b2f3a928760000000000000000000000000000000000000000000000000de0b6b3a7640000",
        "nonce": "0x3d",
        "chainId": "0xaa36a7"
      },
      "additionalContracts": [],
      "isFixedGasLimit": false
    },
    {
      "hash": "0xad918b19fcfcb4797f691a78fa10c20cdaaaae3c958b306410ec22e1f83fd2e9",
      "transactionType": "CALL",
      "contractName": null,
      "contractAddress": "0xf8d44cc59b87b7649f7bc37a8f1c86b2f3a92876",
      "function": "mint(((address,address,address,address,uint24,bytes32),int24,int24,bytes32,uint256,uint256,uint256,uint256,address,uint256))",
      "arguments": [
        "((0x60Be8D6884fF778db96968635F6089029Ecf0799, 0xA2bFA4Cd0171f124Df6ed94a41D79A81B5Ffb42d, 0x713b5022156c52D9F8E648f7045b318BB425f25d, 0x97e09cD0E079CeeECBb799834959e3dC8e4ec31A, 3000, 0x00000000000000000000000000000000000000000000000000000000000a0000), -1000, 1000, 0x0000000000000000000000000000000000000000000000000000000000000000, 1000000000000000000, 1000000000000000000, 0, 0, 0x10704c7c238CAaCB6e2bC41CF1dbACAAD5E5AEf7, 1720918368)"
      ],
      "transaction": {
        "from": "0x10704c7c238caacb6e2bc41cf1dbacaad5e5aef7",
        "to": "0xf8d44cc59b87b7649f7bc37a8f1c86b2f3a92876",
        "gas": "0x77795",
        "value": "0x0",
        "input": "0xc12a1ef7000000000000000000000000481366775cf607f9fad7d99fa84465ac06f7f2bc000000000000000000000000a2bfa4cd0171f124df6ed94a41d79a81b5ffb42d000000000000000000000000713b5022156c52d9f8e648f7045b318bb425f25d00000000000000000000000097e09cd0e079ceeecbb799834959e3dc8e4ec31a0000000000000000000000000000000000000000000000000000000000000bb800000000000000000000000000000000000000000000000000000000000a0000fffffffffffffffffffffffffffffffffffffffffffffffffffffffffffffc1800000000000000000000000000000000000000000000000000000000000003e800000000000000000000000000000000000000000000000000000000000000000000000000000000000000000000000000000000000000000de0b6b3a76400000000000000000000000000000000000000000000000000000de0b6b3a76400000000000000000000000000000000000000000000000000000000000000000000000000000000000000000000000000000000000000000000000000000000000000000000000000000000000010704c7c238caacb6e2bc41cf1dbacaad5e5aef70000000000000000000000000000000000000000000000000000000066932160",
        "nonce": "0x3e",
        "chainId": "0xaa36a7"
      },
      "additionalContracts": [],
      "isFixedGasLimit": false
    }
  ],
  "receipts": [
    {
      "status": "0x1",
      "cumulativeGasUsed": "0x6c47d7",
      "logs": [
        {
          "address": "0xa2bfa4cd0171f124df6ed94a41d79a81b5ffb42d",
          "topics": [
            "0x8c5be1e5ebec7d5bd14f71427d1e84f3dd0314c0f7b2291e5b200ac8c7c3b925",
            "0x00000000000000000000000010704c7c238caacb6e2bc41cf1dbacaad5e5aef7",
            "0x000000000000000000000000f8d44cc59b87b7649f7bc37a8f1c86b2f3a92876"
          ],
          "data": "0x0000000000000000000000000000000000000000000000000de0b6b3a7640000",
          "blockHash": "0x575e7efc4fb347193eeddd6ab0b88e92d2999160976df2a0fea125409a370314",
          "blockNumber": "0x601ffa",
          "transactionHash": "0xeed9cced8203cf683661ae1649907f6983937c0cf79b9c08f71c1659e142b18b",
          "transactionIndex": "0x3c",
          "logIndex": "0x49",
          "removed": false
        }
      ],
      "logsBloom": "0x00000000000000000200000000000000000000000000000000000000000000030000000000000000000000000000000000000000000000000000000000200000000000000800000000000000000000000000000000000000000000000000000000000000000000000000000000000000000001000000000000000000000000000000000000000000000000000000000000000000000000000000000000000000020000000000000004000000000000002000000000000000000000000000000000000000000000000000000000000000000000000000000002000000000000000210000000000000000000000000000000000000000000000000000000000000",
      "type": "0x2",
      "transactionHash": "0xeed9cced8203cf683661ae1649907f6983937c0cf79b9c08f71c1659e142b18b",
      "transactionIndex": "0x3c",
      "blockHash": "0x575e7efc4fb347193eeddd6ab0b88e92d2999160976df2a0fea125409a370314",
      "blockNumber": "0x601ffa",
      "gasUsed": "0xb769",
      "effectiveGasPrice": "0x168edf874",
      "from": "0x10704c7c238caacb6e2bc41cf1dbacaad5e5aef7",
      "to": "0xa2bfa4cd0171f124df6ed94a41d79a81b5ffb42d",
      "contractAddress": null
    },
    {
      "status": "0x1",
      "cumulativeGasUsed": "0x6cff40",
      "logs": [
        {
          "address": "0x60Be8D6884fF778db96968635F6089029Ecf0799",
          "topics": [
            "0x8c5be1e5ebec7d5bd14f71427d1e84f3dd0314c0f7b2291e5b200ac8c7c3b925",
            "0x00000000000000000000000010704c7c238caacb6e2bc41cf1dbacaad5e5aef7",
            "0x000000000000000000000000f8d44cc59b87b7649f7bc37a8f1c86b2f3a92876"
          ],
          "data": "0x0000000000000000000000000000000000000000000000000de0b6b3a7640000",
          "blockHash": "0x575e7efc4fb347193eeddd6ab0b88e92d2999160976df2a0fea125409a370314",
          "blockNumber": "0x601ffa",
          "transactionHash": "0xb00d1645b7524358b88564bf97b41444e5b547c8445e4555d72d90ca4517b6c6",
          "transactionIndex": "0x3d",
          "logIndex": "0x4a",
          "removed": false
        }
      ],
      "logsBloom": "0x00000000000000000200000000000000000000000000000000000000000000030000000000000000200000000000000000000000000000000000000000200000000000000800000000000000000000000000000000000000000000000000000000000000000000000000000002000000000000000100000000000000000000000000000000000000000000000000000000000000000000000000000000000000020000000000000004000000000000002000000000000000000000000000000000000000000000000000000000000000000000000000000000000000000000000010000000000000000000000000000000000000000000000000000000000000",
      "type": "0x2",
      "transactionHash": "0xb00d1645b7524358b88564bf97b41444e5b547c8445e4555d72d90ca4517b6c6",
      "transactionIndex": "0x3d",
      "blockHash": "0x575e7efc4fb347193eeddd6ab0b88e92d2999160976df2a0fea125409a370314",
      "blockNumber": "0x601ffa",
      "gasUsed": "0xb769",
      "effectiveGasPrice": "0x168edf874",
      "from": "0x10704c7c238caacb6e2bc41cf1dbacaad5e5aef7",
      "to": "0x60Be8D6884fF778db96968635F6089029Ecf0799",
      "contractAddress": null
    },
    {
      "status": "0x1",
      "cumulativeGasUsed": "0x726734",
      "logs": [
        {
          "address": "0x97e09cd0e079ceeecbb799834959e3dc8e4ec31a",
          "topics": [
            "0x431541727fac2b75e420d6f68d74dec38a010e3bcb4bc3416a866ffb2123be33",
            "0x603425657cce15ac359829472a5bf0c48c3c612820a525d9556dfc9478833658",
            "0x000000000000000000000000f8d44cc59b87b7649f7bc37a8f1c86b2f3a92876"
          ],
          "data": "0xfffffffffffffffffffffffffffffffffffffffffffffffffffffffffffffc1800000000000000000000000000000000000000000000000000000000000003e800000000000000000000000000000000000000000000000000000000000000000000000000000000000000000000000000000000000000011c90fc146ed1a23e",
          "blockHash": "0x575e7efc4fb347193eeddd6ab0b88e92d2999160976df2a0fea125409a370314",
          "blockNumber": "0x601ffa",
          "transactionHash": "0xad918b19fcfcb4797f691a78fa10c20cdaaaae3c958b306410ec22e1f83fd2e9",
          "transactionIndex": "0x3e",
          "logIndex": "0x4b",
          "removed": false
        },
        {
          "address": "0xf8d44cc59b87b7649f7bc37a8f1c86b2f3a92876",
          "topics": [
            "0xddf252ad1be2c89b69c2b068fc378daa952ba7f163c4a11628f55a4df523b3ef",
            "0x0000000000000000000000000000000000000000000000000000000000000000",
            "0x00000000000000000000000010704c7c238caacb6e2bc41cf1dbacaad5e5aef7",
            "0x0000000000000000000000000000000000000000000000000000000000000002"
          ],
          "data": "0x",
          "blockHash": "0x575e7efc4fb347193eeddd6ab0b88e92d2999160976df2a0fea125409a370314",
          "blockNumber": "0x601ffa",
          "transactionHash": "0xad918b19fcfcb4797f691a78fa10c20cdaaaae3c958b306410ec22e1f83fd2e9",
          "transactionIndex": "0x3e",
          "logIndex": "0x4c",
          "removed": false
        },
        {
          "address": "0x60Be8D6884fF778db96968635F6089029Ecf0799",
          "topics": [
            "0xddf252ad1be2c89b69c2b068fc378daa952ba7f163c4a11628f55a4df523b3ef",
            "0x00000000000000000000000010704c7c238caacb6e2bc41cf1dbacaad5e5aef7",
            "0x0000000000000000000000009ddc29733279c31cab29616ebf3eb37e63cc9157"
          ],
          "data": "0x0000000000000000000000000000000000000000000000000de0b6b3a7640000",
          "blockHash": "0x575e7efc4fb347193eeddd6ab0b88e92d2999160976df2a0fea125409a370314",
          "blockNumber": "0x601ffa",
          "transactionHash": "0xad918b19fcfcb4797f691a78fa10c20cdaaaae3c958b306410ec22e1f83fd2e9",
          "transactionIndex": "0x3e",
          "logIndex": "0x4d",
          "removed": false
        },
        {
          "address": "0xa2bfa4cd0171f124df6ed94a41d79a81b5ffb42d",
          "topics": [
            "0xddf252ad1be2c89b69c2b068fc378daa952ba7f163c4a11628f55a4df523b3ef",
            "0x00000000000000000000000010704c7c238caacb6e2bc41cf1dbacaad5e5aef7",
            "0x0000000000000000000000009ddc29733279c31cab29616ebf3eb37e63cc9157"
          ],
          "data": "0x0000000000000000000000000000000000000000000000000de0b6b3a7640000",
          "blockHash": "0x575e7efc4fb347193eeddd6ab0b88e92d2999160976df2a0fea125409a370314",
          "blockNumber": "0x601ffa",
          "transactionHash": "0xad918b19fcfcb4797f691a78fa10c20cdaaaae3c958b306410ec22e1f83fd2e9",
          "transactionIndex": "0x3e",
          "logIndex": "0x4e",
          "removed": false
        },
        {
          "address": "0xf8d44cc59b87b7649f7bc37a8f1c86b2f3a92876",
          "topics": [
            "0x3067048beee31b25b2f1681f88dac838c8bba36af25bfb2b7cf7473a5847e35f",
            "0x0000000000000000000000000000000000000000000000000000000000000002"
          ],
          "data": "0x0000000000000000000000000000000000000000000000011c90fc146ed1a23e0000000000000000000000000000000000000000000000000de0b6b3a76400000000000000000000000000000000000000000000000000000de0b6b3a7640000",
          "blockHash": "0x575e7efc4fb347193eeddd6ab0b88e92d2999160976df2a0fea125409a370314",
          "blockNumber": "0x601ffa",
          "transactionHash": "0xad918b19fcfcb4797f691a78fa10c20cdaaaae3c958b306410ec22e1f83fd2e9",
          "transactionIndex": "0x3e",
          "logIndex": "0x4f",
          "removed": false
        }
      ],
      "logsBloom": "0x04000000000200000200000000000000000080000000000000000000000000030400000000000040210000000000000000000000000000000400000000000000000000000800000000000008000000400000000000000000002200000000000000000000020000000000000002000800000001000900000000000010000000000000000000000000000000000000000000000080000000000000000000010000000000000000000004000100000000002000004000000000000000000000000000000002200000200002000000000000000000000000000002000000000020000200000000000000010000000000000000000000008000000000000000000800",
      "type": "0x2",
      "transactionHash": "0xad918b19fcfcb4797f691a78fa10c20cdaaaae3c958b306410ec22e1f83fd2e9",
      "transactionIndex": "0x3e",
      "blockHash": "0x575e7efc4fb347193eeddd6ab0b88e92d2999160976df2a0fea125409a370314",
      "blockNumber": "0x601ffa",
      "gasUsed": "0x567f4",
      "effectiveGasPrice": "0x168edf874",
      "from": "0x10704c7c238caacb6e2bc41cf1dbacaad5e5aef7",
      "to": "0xf8d44cc59b87b7649f7bc37a8f1c86b2f3a92876",
      "contractAddress": null
    }
  ],
  "libraries": [],
  "pending": [],
  "returns": {},
  "timestamp": 1720831990,
  "chain": 11155111,
  "commit": "6f31e88"
}