{
  "transactions": [
    {
      "hash": "0xe0b70dd6022eb4e86fce159fba595638f1e2a94de4d035e92561c413d3685720",
      "transactionType": "CREATE",
      "contractName": "WaffleHook",
      "contractAddress": "0x0960d94c71149d42ba4eae58e23d70350f82634b",
      "function": null,
      "arguments": [
        "0x97e09cD0E079CeeECBb799834959e3dC8e4ec31A"
      ],
      "transaction": {
        "from": "0x10704c7c238caacb6e2bc41cf1dbacaad5e5aef7",
        "gas": "0x90241",
        "value": "0x0",
        "input": "0x60c080604052346100cf5760208161083b803803809161001f82856100e6565b8339810103126100cf57516001600160a01b03808216918281036100cf5760805260405163fbfa77cf60e01b815291602090839060049082905afa9182156100db575f9261009a575b8260a05260405161071d908161011e82396080518181816102000152610264015260a05181818160d201526102eb0152f35b9091506020813d6020116100d3575b816100b6602093836100e6565b810103126100cf575190811681036100cf575f80610068565b5f80fd5b3d91506100a9565b6040513d5f823e3d90fd5b601f909101601f19168101906001600160401b0382119082101761010957604052565b634e487b7160e01b5f52604160045260245ffdfe60806040818152600480361015610014575f80fd5b5f3560e01c9283631ffe6a5814610457575082634b6a682d146104525782635304d44e146104525782636f6657cb146103fe5782637aa43ce0146103dc578263972e19a21461037c578263ab6291fe146102b5578263d533c4db14610293578263dc4c90d314610250578263e592dc93146101a8578263e8246c7f146100ba578263f961d1f41461010557508163fbfa77cf146100bf575063fe70c9c9146100ba575f80fd5b6105e9565b34610101575f36600319011261010157517f00000000000000000000000000000000000000000000000000000000000000006001600160a01b03168152602090f35b5f80fd5b9034610101575f366003190112610101578051916101c083019083821067ffffffffffffffff83111761019557506101a06020935f9284528281528285820152600180858301528060608301528060808301528060a08301528060c083015260e0820152826101008201528261012082015282610140820152826101608201528261018082015201525160fc8152f35b604190634e487b7160e01b5f525260245ffd5b903461010157610160366003190112610101576101c36104c2565b5060c03660231901126101015760603660e3190112610101576101443567ffffffffffffffff8111610101576101fc90369084016104ee565b50507f00000000000000000000000000000000000000000000000000000000000000006001600160a01b0316330361024357805f6060925191818352816020840152820152f35b5163570c108560e11b8152fd5b5034610101575f36600319011261010157517f00000000000000000000000000000000000000000000000000000000000000006001600160a01b03168152602090f35b9034610101576102a236610581565b50505050505051630a85dc2960e01b8152fd5b903461010157602091602060031936011261010157803567ffffffffffffffff8111610101576102e890369083016104ee565b917f00000000000000000000000000000000000000000000000000000000000000006001600160a01b0316330361036e57509061032491610646565b918151928391602083528151918260208501525f5b8381106103585750505f83830185015250601f01601f19168101030190f35b8181018301518782018701528694508201610339565b83516362df054560e01b8152fd5b903461010157610120366003190112610101576103976104c2565b5060c0366023190112610101576103ac6104d8565b506101043567ffffffffffffffff8111610101576103cd90369084016104ee565b505051630a85dc2960e01b8152fd5b5034610101576103eb36610581565b50505050505080515f81525f6020820152f35b903461010157610180366003190112610101576104196104c2565b5060c03660231901126101015760603660e3190112610101576101643567ffffffffffffffff8111610101576103cd90369084016104ee565b61051c565b3461010157610140366003190112610101576104716104c2565b5060c0366023190112610101576104866104d8565b50610104358060020b03610101576101243567ffffffffffffffff8111610101576104b490369084016104ee565b5050630a85dc2960e01b8152fd5b600435906001600160a01b038216820361010157565b60e435906001600160a01b038216820361010157565b9181601f840112156101015782359167ffffffffffffffff8311610101576020838186019501011161010157565b3461010157610140366003190112610101576004356001600160a01b038116036101015760c0366023190112610101576101243567ffffffffffffffff81116101015761056d9036906004016104ee565b5050604051630a85dc2960e01b8152600490fd5b6101a0600319820112610101576004356001600160a01b0381168103610101579160c060231983011261010157602491608060e3198201126101015760e4916101643591610184359067ffffffffffffffff8211610101576105e5916004016104ee565b9091565b3461010157610180366003190112610101576004356001600160a01b038116036101015760c03660231901126101015760803660e3190112610101576101643567ffffffffffffffff81116101015761056d9036906004016104ee565b5f9182918160405192839283378101838152039082305af1903d156106df5767ffffffffffffffff913d8381116106cb5760405193601f8201601f19908116603f01168501908111858210176106cb5760405283523d5f602085013e5b6106c957508051156106b757602081519101fd5b6040516314815f4760e31b8152600490fd5b565b634e487b7160e01b5f52604160045260245ffd5b6060916106a356fea2646970667358221220e741c2465a284e56d14fed8021cd01d9b08a7793ee8e54d7b11541e183a2234964736f6c6343000818003300000000000000000000000097e09cd0e079ceeecbb799834959e3dc8e4ec31a",
        "nonce": "0x35",
        "chainId": "0xaa36a7"
      },
      "additionalContracts": [],
      "isFixedGasLimit": false
    },
    {
      "hash": "0xd03b7571b012232f80840e066aaa27c271d74b4ef28ff9a82196cdf3158b572f",
      "transactionType": "CALL",
      "contractName": null,
      "contractAddress": "0x97e09cd0e079ceeecbb799834959e3dc8e4ec31a",
      "function": "initialize((address,address,address,address,uint24,bytes32),uint160,bytes)",
      "arguments": [
        "(0x60Be8D6884fF778db96968635F6089029Ecf0799, 0xA2bFA4Cd0171f124Df6ed94a41D79A81B5Ffb42d, 0x0960D94C71149D42ba4EaE58e23d70350f82634b, 0x97e09cD0E079CeeECBb799834959e3dC8e4ec31A, 3000, 0x00000000000000000000000000000000000000000000000000000000000a00fc)",
        "79228162514264337593543950336",
        "0x"
      ],
      "transaction": {
        "from": "0x10704c7c238caacb6e2bc41cf1dbacaad5e5aef7",
        "to": "0x97e09cd0e079ceeecbb799834959e3dc8e4ec31a",
        "gas": "0x3c95f",
        "value": "0x0",
        "input": "0x222bb36b000000000000000000000000481366775cf607f9fad7d99fa84465ac06f7f2bc000000000000000000000000a2bfa4cd0171f124df6ed94a41d79a81b5ffb42d0000000000000000000000000960d94c71149d42ba4eae58e23d70350f82634b00000000000000000000000097e09cd0e079ceeecbb799834959e3dc8e4ec31a0000000000000000000000000000000000000000000000000000000000000bb800000000000000000000000000000000000000000000000000000000000a00fc000000000000000000000000000000000000000100000000000000000000000000000000000000000000000000000000000000000000000000000000000001000000000000000000000000000000000000000000000000000000000000000000",
        "nonce": "0x36",
        "chainId": "0xaa36a7"
      },
      "additionalContracts": [],
      "isFixedGasLimit": false
    }
  ],
  "receipts": [
    {
      "status": "0x1",
      "cumulativeGasUsed": "0x1b264e2",
      "logs": [],
      "logsBloom": "0x00000000000000000000000000000000000000000000000000000000000000000000000000000000000000000000000000000000000000000000000000000000000000000000000000000000000000000000000000000000000000000000000000000000000000000000000000000000000000000000000000000000000000000000000000000000000000000000000000000000000000000000000000000000000000000000000000000000000000000000000000000000000000000000000000000000000000000000000000000000000000000000000000000000000000000000000000000000000000000000000000000000000000000000000000000000",
      "type": "0x2",
      "transactionHash": "0xe0b70dd6022eb4e86fce159fba595638f1e2a94de4d035e92561c413d3685720",
      "transactionIndex": "0x91",
      "blockHash": "0x556432f7b420fd5e7dc63db70b823465958dcdc7a1b796e1d9997a5bd5a5419b",
      "blockNumber": "0x601f10",
      "gasUsed": "0x6ee0b",
      "effectiveGasPrice": "0x420bc04e",
      "from": "0x10704c7c238caacb6e2bc41cf1dbacaad5e5aef7",
      "to": null,
      "contractAddress": "0x0960d94c71149d42ba4eae58e23d70350f82634b"
    },
    {
      "status": "0x1",
      "cumulativeGasUsed": "0x1b4fbb4",
      "logs": [
        {
          "address": "0x97e09cd0e079ceeecbb799834959e3dc8e4ec31a",
          "topics": [
            "0xcf60175433806de690ed1498c3ba77edb4652f802538c4a2ae107bf59c31e35d",
            "0x3277d5196147ea0cbe063140e1ca66dd5633935421b0ede4063d4e5077267cbc",
            "0x000000000000000000000000481366775cf607f9fad7d99fa84465ac06f7f2bc",
            "0x000000000000000000000000a2bfa4cd0171f124df6ed94a41d79a81b5ffb42d"
          ],
          "data": "0x0000000000000000000000000960d94c71149d42ba4eae58e23d70350f82634b0000000000000000000000000000000000000000000000000000000000000bb800000000000000000000000000000000000000000000000000000000000a00fc",
          "blockHash": "0x556432f7b420fd5e7dc63db70b823465958dcdc7a1b796e1d9997a5bd5a5419b",
          "blockNumber": "0x601f10",
          "transactionHash": "0xd03b7571b012232f80840e066aaa27c271d74b4ef28ff9a82196cdf3158b572f",
          "transactionIndex": "0x92",
          "logIndex": "0xe1",
          "removed": false
        }
      ],
      "logsBloom": "0x00000000000200000000000008000000000000000000000000000000000000000000000000000000000004000000000000000000000000000000000000000000000000000000000000000000000000000000000000000000000000000000001000000000000000000000000000000000000020000000000000000000000008000000000000000000000000000000000000000080000000000000000000010000000080000000000000000000000000000000000000000000004000000000000000000000000000000000000000000800000008000000000000000000000000000000200000000000000000000000000000000000010000000080000000000000",
      "type": "0x2",
      "transactionHash": "0xd03b7571b012232f80840e066aaa27c271d74b4ef28ff9a82196cdf3158b572f",
      "transactionIndex": "0x92",
      "blockHash": "0x556432f7b420fd5e7dc63db70b823465958dcdc7a1b796e1d9997a5bd5a5419b",
      "blockNumber": "0x601f10",
      "gasUsed": "0x296d2",
      "effectiveGasPrice": "0x420bc04e",
      "from": "0x10704c7c238caacb6e2bc41cf1dbacaad5e5aef7",
      "to": "0x97e09cd0e079ceeecbb799834959e3dc8e4ec31a",
      "contractAddress": null
    }
  ],
  "libraries": [],
  "pending": [],
  "returns": {},
  "timestamp": 1720828723,
  "chain": 11155111,
  "commit": "6f31e88"
}