{
  "transactions": [
    {
      "hash": "0x77840b4c9ce99b92d29461bf27cd2de018ad129d84f4697faa0d1c52a9ee5014",
      "transactionType": "CREATE",
      "contractName": "WaffleHook",
      "contractAddress": "0x713b5022156c52d9f8e648f7045b318bb425f25d",
      "function": null,
      "arguments": [
        "0x97e09cD0E079CeeECBb799834959e3dC8e4ec31A"
      ],
      "transaction": {
        "from": "0x10704c7c238caacb6e2bc41cf1dbacaad5e5aef7",
        "gas": "0x853da",
        "value": "0x0",
        "input": "0x60c080604052346100c857602081610794803803809161001f82856100df565b8339810103126100c857516001600160a01b03808216918281036100c85760805260405163fbfa77cf60e01b815291602090839060049082905afa9182156100d4575f92610093575b8260a05260405161067d908161011782396080518161021d015260a05181818160d201526102870152f35b9091506020813d6020116100cc575b816100af602093836100df565b810103126100c8575190811681036100c8575f80610068565b5f80fd5b3d91506100a2565b6040513d5f823e3d90fd5b601f909101601f19168101906001600160401b0382119082101761010257604052565b634e487b7160e01b5f52604160045260245ffdfe60806040818152600480361015610014575f80fd5b5f3560e01c9283631ffe6a58146103c2575082634b6a682d146103bd5782635304d44e146103bd5782636f6657cb146103695782637aa43ce01461024c578263972e19a214610318578263ab6291fe14610251578263d533c4db1461024c578263dc4c90d314610209578263e592dc93146101a6578263e8246c7f146100ba578263f961d1f41461010557508163fbfa77cf146100bf575063fe70c9c9146100ba575f80fd5b610549565b34610101575f36600319011261010157517f00000000000000000000000000000000000000000000000000000000000000006001600160a01b03168152602090f35b5f80fd5b9034610101575f366003190112610101578051916101c083019083821067ffffffffffffffff83111761019357506101a06020935f928452828152828582015282848201528260608201528260808201528260a08201528260c08201528260e082015282610100820152826101208201528261014082015282610160820152826101808201520152515f8152f35b604190634e487b7160e01b5f525260245ffd5b903461010157610160366003190112610101576101c161042d565b5060c03660231901126101015760603660e3190112610101576101443567ffffffffffffffff8111610101576101fa9036908401610459565b505051630a85dc2960e01b8152fd5b5034610101575f36600319011261010157517f00000000000000000000000000000000000000000000000000000000000000006001600160a01b03168152602090f35b6104ec565b903461010157602091602060031936011261010157803567ffffffffffffffff8111610101576102849036908301610459565b917f00000000000000000000000000000000000000000000000000000000000000006001600160a01b0316330361030a5750906102c0916105a6565b918151928391602083528151918260208501525f5b8381106102f45750505f83830185015250601f01601f19168101030190f35b81810183015187820187015286945082016102d5565b83516362df054560e01b8152fd5b9034610101576101203660031901126101015761033361042d565b5060c036602319011261010157610348610443565b506101043567ffffffffffffffff8111610101576101fa9036908401610459565b9034610101576101803660031901126101015761038461042d565b5060c03660231901126101015760603660e3190112610101576101643567ffffffffffffffff8111610101576101fa9036908401610459565b610487565b3461010157610140366003190112610101576103dc61042d565b5060c0366023190112610101576103f1610443565b50610104358060020b03610101576101243567ffffffffffffffff81116101015761041f9036908401610459565b5050630a85dc2960e01b8152fd5b600435906001600160a01b038216820361010157565b60e435906001600160a01b038216820361010157565b9181601f840112156101015782359167ffffffffffffffff8311610101576020838186019501011161010157565b3461010157610140366003190112610101576004356001600160a01b038116036101015760c0366023190112610101576101243567ffffffffffffffff8111610101576104d8903690600401610459565b5050604051630a85dc2960e01b8152600490fd5b34610101576101a0366003190112610101576004356001600160a01b038116036101015760c03660231901126101015760803660e3190112610101576101843567ffffffffffffffff8111610101576104d8903690600401610459565b3461010157610180366003190112610101576004356001600160a01b038116036101015760c03660231901126101015760803660e3190112610101576101643567ffffffffffffffff8111610101576104d8903690600401610459565b5f9182918160405192839283378101838152039082305af1903d1561063f5767ffffffffffffffff913d83811161062b5760405193601f8201601f19908116603f011685019081118582101761062b5760405283523d5f602085013e5b610629575080511561061757602081519101fd5b6040516314815f4760e31b8152600490fd5b565b634e487b7160e01b5f52604160045260245ffd5b60609161060356fea264697066735822122094206f8be953ea509eb8cd961be4562a179dde2e8f525abc48f068f500b4371364736f6c6343000818003300000000000000000000000097e09cd0e079ceeecbb799834959e3dc8e4ec31a",
        "nonce": "0x37",
        "chainId": "0xaa36a7"
      },
      "additionalContracts": [],
      "isFixedGasLimit": false
    },
    {
      "hash": "0x5977c9fc442b2287b114083dddb7577ff86e6fabf816ea9b87f1efb3cb4601e7",
      "transactionType": "CALL",
      "contractName": null,
      "contractAddress": "0x97e09cd0e079ceeecbb799834959e3dc8e4ec31a",
      "function": "initialize((address,address,address,address,uint24,bytes32),uint160,bytes)",
      "arguments": [
        "(0x60Be8D6884fF778db96968635F6089029Ecf0799, 0xA2bFA4Cd0171f124Df6ed94a41D79A81B5Ffb42d, 0x713b5022156c52D9F8E648f7045b318BB425f25d, 0x97e09cD0E079CeeECBb799834959e3dC8e4ec31A, 3000, 0x00000000000000000000000000000000000000000000000000000000000a0000)",
        "79228162514264337593543950336",
        "0x"
      ],
      "transaction": {
        "from": "0x10704c7c238caacb6e2bc41cf1dbacaad5e5aef7",
        "to": "0x97e09cd0e079ceeecbb799834959e3dc8e4ec31a",
        "gas": "0x39372",
        "value": "0x0",
        "input": "0x222bb36b000000000000000000000000481366775cf607f9fad7d99fa84465ac06f7f2bc000000000000000000000000a2bfa4cd0171f124df6ed94a41d79a81b5ffb42d000000000000000000000000713b5022156c52d9f8e648f7045b318bb425f25d00000000000000000000000097e09cd0e079ceeecbb799834959e3dc8e4ec31a0000000000000000000000000000000000000000000000000000000000000bb800000000000000000000000000000000000000000000000000000000000a0000000000000000000000000000000000000000000100000000000000000000000000000000000000000000000000000000000000000000000000000000000001000000000000000000000000000000000000000000000000000000000000000000",
        "nonce": "0x38",
        "chainId": "0xaa36a7"
      },
      "additionalContracts": [],
      "isFixedGasLimit": false
    }
  ],
  "receipts": [
    {
      "status": "0x1",
      "cumulativeGasUsed": "0x7931ef",
      "logs": [],
      "logsBloom": "0x00000000000000000000000000000000000000000000000000000000000000000000000000000000000000000000000000000000000000000000000000000000000000000000000000000000000000000000000000000000000000000000000000000000000000000000000000000000000000000000000000000000000000000000000000000000000000000000000000000000000000000000000000000000000000000000000000000000000000000000000000000000000000000000000000000000000000000000000000000000000000000000000000000000000000000000000000000000000000000000000000000000000000000000000000000000",
      "type": "0x2",
      "transactionHash": "0x77840b4c9ce99b92d29461bf27cd2de018ad129d84f4697faa0d1c52a9ee5014",
      "transactionIndex": "0x2b",
      "blockHash": "0x18c3ccbfa0351c998c51bc2af331465806f3a02254a5918177590d7000d64789",
      "blockNumber": "0x601fc0",
      "gasUsed": "0x667e3",
      "effectiveGasPrice": "0x58373c59",
      "from": "0x10704c7c238caacb6e2bc41cf1dbacaad5e5aef7",
      "to": null,
      "contractAddress": "0x713b5022156c52d9f8e648f7045b318bb425f25d"
    },
    {
      "status": "0x1",
      "cumulativeGasUsed": "0x7bc8b4",
      "logs": [
        {
          "address": "0x97e09cd0e079ceeecbb799834959e3dc8e4ec31a",
          "topics": [
            "0xcf60175433806de690ed1498c3ba77edb4652f802538c4a2ae107bf59c31e35d",
            "0x603425657cce15ac359829472a5bf0c48c3c612820a525d9556dfc9478833658",
            "0x000000000000000000000000481366775cf607f9fad7d99fa84465ac06f7f2bc",
            "0x000000000000000000000000a2bfa4cd0171f124df6ed94a41d79a81b5ffb42d"
          ],
          "data": "0x000000000000000000000000713b5022156c52d9f8e648f7045b318bb425f25d0000000000000000000000000000000000000000000000000000000000000bb800000000000000000000000000000000000000000000000000000000000a0000",
          "blockHash": "0x18c3ccbfa0351c998c51bc2af331465806f3a02254a5918177590d7000d64789",
          "blockNumber": "0x601fc0",
          "transactionHash": "0x5977c9fc442b2287b114083dddb7577ff86e6fabf816ea9b87f1efb3cb4601e7",
          "transactionIndex": "0x2c",
          "logIndex": "0x42",
          "removed": false
        }
      ],
      "logsBloom": "0x00000000000200000000000008000000000000000000000000000000000000000400000000000000010004000000000000000000000000000000000000000000000000000000000000000000000000400000000000000000000000000000000000000000000000000000000000000000000000000000000000000000000008000000000000000000000000000000000000000080000000000000000000010000000080000000000000000000000000000000000000000000004000000000000000000000000000000000000000000800000000000000000000000000000000000000200000000000000000000000000000000000010000000080000000000000",
      "type": "0x2",
      "transactionHash": "0x5977c9fc442b2287b114083dddb7577ff86e6fabf816ea9b87f1efb3cb4601e7",
      "transactionIndex": "0x2c",
      "blockHash": "0x18c3ccbfa0351c998c51bc2af331465806f3a02254a5918177590d7000d64789",
      "blockNumber": "0x601fc0",
      "gasUsed": "0x296c5",
      "effectiveGasPrice": "0x58373c59",
      "from": "0x10704c7c238caacb6e2bc41cf1dbacaad5e5aef7",
      "to": "0x97e09cd0e079ceeecbb799834959e3dc8e4ec31a",
      "contractAddress": null
    }
  ],
  "libraries": [],
  "pending": [],
  "returns": {},
  "timestamp": 1720831073,
  "chain": 11155111,
  "commit": "6f31e88"
}